{
  "contractName": "SearchDPL",
  "abi": [
    {
      "constant": true,
      "inputs": [],
      "name": "dplCount",
      "outputs": [
        {
          "name": "",
          "type": "uint256"
        }
      ],
      "payable": false,
      "stateMutability": "view",
      "type": "function"
    },
    {
      "constant": true,
      "inputs": [
        {
          "name": "",
          "type": "uint256"
        }
      ],
      "name": "nameList",
      "outputs": [
        {
          "name": "id",
          "type": "uint256"
        },
        {
          "name": "name",
          "type": "string"
        },
        {
          "name": "country",
          "type": "string"
        },
        {
          "name": "addr",
          "type": "string"
        },
        {
          "name": "street",
          "type": "string"
        },
        {
          "name": "city",
          "type": "string"
        },
        {
          "name": "searched",
          "type": "bool"
        }
      ],
      "payable": false,
      "stateMutability": "view",
      "type": "function"
    },
    {
      "inputs": [],
      "payable": false,
      "stateMutability": "nonpayable",
      "type": "constructor"
    },
    {
      "anonymous": false,
      "inputs": [
        {
          "indexed": false,
          "name": "id",
          "type": "uint256"
        },
        {
          "indexed": false,
          "name": "name",
          "type": "string"
        },
        {
          "indexed": false,
          "name": "country",
          "type": "string"
        },
        {
          "indexed": false,
          "name": "addr",
          "type": "string"
        },
        {
          "indexed": false,
          "name": "street",
          "type": "string"
        },
        {
          "indexed": false,
          "name": "city",
          "type": "string"
        },
        {
          "indexed": false,
          "name": "searched",
          "type": "bool"
        }
      ],
      "name": "DPLCreated",
      "type": "event"
    },
    {
      "anonymous": false,
      "inputs": [
        {
          "indexed": false,
          "name": "id",
          "type": "uint256"
        },
        {
          "indexed": false,
          "name": "name",
          "type": "string"
        },
        {
          "indexed": false,
          "name": "country",
          "type": "string"
        },
        {
          "indexed": false,
          "name": "addr",
          "type": "string"
        },
        {
          "indexed": false,
          "name": "street",
          "type": "string"
        },
        {
          "indexed": false,
          "name": "city",
          "type": "string"
        },
        {
          "indexed": false,
          "name": "searched",
          "type": "bool"
        }
      ],
      "name": "SearchCompleted",
      "type": "event"
    },
    {
      "constant": false,
      "inputs": [
        {
          "name": "_name",
          "type": "string"
        },
        {
          "name": "_country",
          "type": "string"
        },
        {
          "name": "_addr",
          "type": "string"
        },
        {
          "name": "_street",
          "type": "string"
        },
        {
          "name": "_city",
          "type": "string"
        }
      ],
      "name": "createDPL",
      "outputs": [],
      "payable": false,
      "stateMutability": "nonpayable",
      "type": "function"
    },
    {
      "constant": false,
      "inputs": [
        {
          "name": "_name",
          "type": "string"
        }
      ],
      "name": "searchDpl",
      "outputs": [],
      "payable": false,
      "stateMutability": "nonpayable",
      "type": "function"
    }
  ],
  "bytecode": "0x6080604052600080553480156200001557600080fd5b50620001346040518060400160405280600681526020017f536f6e76697200000000000000000000000000000000000000000000000000008152506040518060400160405280600581526020017f496e6469610000000000000000000000000000000000000000000000000000008152506040518060400160405280602081526020017f41322c4c69717569644875622c444c4620576f726c642054656368205061726b8152506040518060400160405280600681526020017f4c696e65203100000000000000000000000000000000000000000000000000008152506040518060400160405280600781526020017f47757267616f6e000000000000000000000000000000000000000000000000008152506200025860201b60201c565b620002526040518060400160405280600681526020017f4e696b68696c00000000000000000000000000000000000000000000000000008152506040518060400160405280600681526020017f506f6c616e6400000000000000000000000000000000000000000000000000008152506040518060400160405280602081526020017f41342c43617067656d696e692c444c4620576f726c642054656368205061726b8152506040518060400160405280600681526020017f4c696e65203200000000000000000000000000000000000000000000000000008152506040518060400160405280600581526020017f44656c68690000000000000000000000000000000000000000000000000000008152506200025860201b60201c565b620006f5565b60008551116200026757600080fd5b60008451116200027657600080fd5b60008351116200028557600080fd5b6000815110156200029557600080fd5b6000815111620002a457600080fd5b60008081548092919060010191905055506040518060e0016040528060005481526020018681526020018581526020018481526020018381526020018281526020016000151581525060016000805481526020019081526020016000206000820151816000015560208201518160010190805190602001906200032992919062000646565b5060408201518160020190805190602001906200034892919062000646565b5060608201518160030190805190602001906200036792919062000646565b5060808201518160040190805190602001906200038692919062000646565b5060a0820151816005019080519060200190620003a592919062000646565b5060c08201518160060160006101000a81548160ff0219169083151502179055509050507fd108bbfb450f4578937fd3e512805b53c3cc7c6099dfbdfc35eb52517d158742600054868686868660006040518088815260200180602001806020018060200180602001806020018715151515815260200186810386528c818151815260200191508051906020019080838360005b838110156200045657808201518184015260208101905062000439565b50505050905090810190601f168015620004845780820380516001836020036101000a031916815260200191505b5086810385528b818151815260200191508051906020019080838360005b83811015620004bf578082015181840152602081019050620004a2565b50505050905090810190601f168015620004ed5780820380516001836020036101000a031916815260200191505b5086810384528a818151815260200191508051906020019080838360005b83811015620005285780820151818401526020810190506200050b565b50505050905090810190601f168015620005565780820380516001836020036101000a031916815260200191505b50868103835289818151815260200191508051906020019080838360005b838110156200059157808201518184015260208101905062000574565b50505050905090810190601f168015620005bf5780820380516001836020036101000a031916815260200191505b50868103825288818151815260200191508051906020019080838360005b83811015620005fa578082015181840152602081019050620005dd565b50505050905090810190601f168015620006285780820380516001836020036101000a031916815260200191505b509c5050505050505050505050505060405180910390a15050505050565b828054600181600116156101000203166002900490600052602060002090601f016020900481019282601f106200068957805160ff1916838001178555620006ba565b82800160010185558215620006ba579182015b82811115620006b95782518255916020019190600101906200069c565b5b509050620006c99190620006cd565b5090565b620006f291905b80821115620006ee576000816000905550600101620006d4565b5090565b90565b61132f80620007056000396000f3fe608060405234801561001057600080fd5b506004361061004c5760003560e01c80631c147792146100515780632dc898e31461010c578063f469cb6a1461012a578063f5f7368a14610393575b600080fd5b61010a6004803603602081101561006757600080fd5b810190808035906020019064010000000081111561008457600080fd5b82018360208201111561009657600080fd5b803590602001918460018302840111640100000000831117156100b857600080fd5b91908080601f016020809104026020016040519081016040528093929190818152602001838380828437600081840152601f19601f8201169050808301925050505050505091929192905050506106aa565b005b610114610b34565b6040518082815260200191505060405180910390f35b6101566004803603602081101561014057600080fd5b8101908080359060200190929190505050610b3a565b6040518088815260200180602001806020018060200180602001806020018715151515815260200186810386528c818151815260200191508051906020019080838360005b838110156101b657808201518184015260208101905061019b565b50505050905090810190601f1680156101e35780820380516001836020036101000a031916815260200191505b5086810385528b818151815260200191508051906020019080838360005b8381101561021c578082015181840152602081019050610201565b50505050905090810190601f1680156102495780820380516001836020036101000a031916815260200191505b5086810384528a818151815260200191508051906020019080838360005b83811015610282578082015181840152602081019050610267565b50505050905090810190601f1680156102af5780820380516001836020036101000a031916815260200191505b50868103835289818151815260200191508051906020019080838360005b838110156102e85780820151818401526020810190506102cd565b50505050905090810190601f1680156103155780820380516001836020036101000a031916815260200191505b50868103825288818151815260200191508051906020019080838360005b8381101561034e578082015181840152602081019050610333565b50505050905090810190601f16801561037b5780820380516001836020036101000a031916815260200191505b509c5050505050505050505050505060405180910390f35b6106a8600480360360a08110156103a957600080fd5b81019080803590602001906401000000008111156103c657600080fd5b8201836020820111156103d857600080fd5b803590602001918460018302840111640100000000831117156103fa57600080fd5b91908080601f016020809104026020016040519081016040528093929190818152602001838380828437600081840152601f19601f8201169050808301925050505050505091929192908035906020019064010000000081111561045d57600080fd5b82018360208201111561046f57600080fd5b8035906020019184600183028401116401000000008311171561049157600080fd5b91908080601f016020809104026020016040519081016040528093929190818152602001838380828437600081840152601f19601f820116905080830192505050505050509192919290803590602001906401000000008111156104f457600080fd5b82018360208201111561050657600080fd5b8035906020019184600183028401116401000000008311171561052857600080fd5b91908080601f016020809104026020016040519081016040528093929190818152602001838380828437600081840152601f19601f8201169050808301925050505050505091929192908035906020019064010000000081111561058b57600080fd5b82018360208201111561059d57600080fd5b803590602001918460018302840111640100000000831117156105bf57600080fd5b91908080601f016020809104026020016040519081016040528093929190818152602001838380828437600081840152601f19601f8201169050808301925050505050505091929192908035906020019064010000000081111561062257600080fd5b82018360208201111561063457600080fd5b8035906020019184600183028401116401000000008311171561065657600080fd5b91908080601f016020809104026020016040519081016040528093929190818152602001838380828437600081840152601f19601f820116905080830192505050505050509192919290505050610e8e565b005b6000600190505b6000548111610b3057816040516020018082805190602001908083835b602083106106f157805182526020820191506020810190506020830392506106ce565b6001836020036101000a038019825116818451168082178552505050505050905001915050604051602081830303815290604052805190602001206001600083815260200190815260200160002060010160405160200180828054600181600116156101000203166002900480156107a05780601f1061077e5761010080835404028352918201916107a0565b820191906000526020600020905b81548152906001019060200180831161078c575b5050915050604051602081830303815290604052805190602001201415610b23577fa50bd99106672da18216aef7e295c2ebcfffb88edf125d58befa6d193309f919600054600160008481526020019081526020016000206001016001600085815260200190815260200160002060020160016000868152602001908152602001600020600301600160008781526020019081526020016000206004016001600088815260200190815260200160002060050160016040518088815260200180602001806020018060200180602001806020018715151515815260200186810386528c8181546001816001161561010002031660029004815260200191508054600181600116156101000203166002900480156108fe5780601f106108d3576101008083540402835291602001916108fe565b820191906000526020600020905b8154815290600101906020018083116108e157829003601f168201915b505086810385528b8181546001816001161561010002031660029004815260200191508054600181600116156101000203166002900480156109815780601f1061095657610100808354040283529160200191610981565b820191906000526020600020905b81548152906001019060200180831161096457829003601f168201915b505086810384528a818154600181600116156101000203166002900481526020019150805460018160011615610100020316600290048015610a045780601f106109d957610100808354040283529160200191610a04565b820191906000526020600020905b8154815290600101906020018083116109e757829003601f168201915b5050868103835289818154600181600116156101000203166002900481526020019150805460018160011615610100020316600290048015610a875780601f10610a5c57610100808354040283529160200191610a87565b820191906000526020600020905b815481529060010190602001808311610a6a57829003601f168201915b5050868103825288818154600181600116156101000203166002900481526020019150805460018160011615610100020316600290048015610b0a5780601f10610adf57610100808354040283529160200191610b0a565b820191906000526020600020905b815481529060010190602001808311610aed57829003601f168201915b50509c5050505050505050505050505060405180910390a15b80806001019150506106b1565b5050565b60005481565b60028181548110610b4757fe5b9060005260206000209060070201600091509050806000015490806001018054600181600116156101000203166002900480601f016020809104026020016040519081016040528092919081815260200182805460018160011615610100020316600290048015610bf95780601f10610bce57610100808354040283529160200191610bf9565b820191906000526020600020905b815481529060010190602001808311610bdc57829003601f168201915b505050505090806002018054600181600116156101000203166002900480601f016020809104026020016040519081016040528092919081815260200182805460018160011615610100020316600290048015610c975780601f10610c6c57610100808354040283529160200191610c97565b820191906000526020600020905b815481529060010190602001808311610c7a57829003601f168201915b505050505090806003018054600181600116156101000203166002900480601f016020809104026020016040519081016040528092919081815260200182805460018160011615610100020316600290048015610d355780601f10610d0a57610100808354040283529160200191610d35565b820191906000526020600020905b815481529060010190602001808311610d1857829003601f168201915b505050505090806004018054600181600116156101000203166002900480601f016020809104026020016040519081016040528092919081815260200182805460018160011615610100020316600290048015610dd35780601f10610da857610100808354040283529160200191610dd3565b820191906000526020600020905b815481529060010190602001808311610db657829003601f168201915b505050505090806005018054600181600116156101000203166002900480601f016020809104026020016040519081016040528092919081815260200182805460018160011615610100020316600290048015610e715780601f10610e4657610100808354040283529160200191610e71565b820191906000526020600020905b815481529060010190602001808311610e5457829003601f168201915b5050505050908060060160009054906101000a900460ff16905087565b6000855111610e9c57600080fd5b6000845111610eaa57600080fd5b6000835111610eb857600080fd5b600081511015610ec757600080fd5b6000815111610ed557600080fd5b60008081548092919060010191905055506040518060e001604052806000548152602001868152602001858152602001848152602001838152602001828152602001600015158152506001600080548152602001908152602001600020600082015181600001556020820151816001019080519060200190610f5892919061125e565b506040820151816002019080519060200190610f7592919061125e565b506060820151816003019080519060200190610f9292919061125e565b506080820151816004019080519060200190610faf92919061125e565b5060a0820151816005019080519060200190610fcc92919061125e565b5060c08201518160060160006101000a81548160ff0219169083151502179055509050507fd108bbfb450f4578937fd3e512805b53c3cc7c6099dfbdfc35eb52517d158742600054868686868660006040518088815260200180602001806020018060200180602001806020018715151515815260200186810386528c818151815260200191508051906020019080838360005b8381101561107b578082015181840152602081019050611060565b50505050905090810190601f1680156110a85780820380516001836020036101000a031916815260200191505b5086810385528b818151815260200191508051906020019080838360005b838110156110e15780820151818401526020810190506110c6565b50505050905090810190601f16801561110e5780820380516001836020036101000a031916815260200191505b5086810384528a818151815260200191508051906020019080838360005b8381101561114757808201518184015260208101905061112c565b50505050905090810190601f1680156111745780820380516001836020036101000a031916815260200191505b50868103835289818151815260200191508051906020019080838360005b838110156111ad578082015181840152602081019050611192565b50505050905090810190601f1680156111da5780820380516001836020036101000a031916815260200191505b50868103825288818151815260200191508051906020019080838360005b838110156112135780820151818401526020810190506111f8565b50505050905090810190601f1680156112405780820380516001836020036101000a031916815260200191505b509c5050505050505050505050505060405180910390a15050505050565b828054600181600116156101000203166002900490600052602060002090601f016020900481019282601f1061129f57805160ff19168380011785556112cd565b828001600101855582156112cd579182015b828111156112cc5782518255916020019190600101906112b1565b5b5090506112da91906112de565b5090565b61130091905b808211156112fc5760008160009055506001016112e4565b5090565b9056fea165627a7a7230582035b8711d5b4abefda8e5757499bc7d44720672bf4647873ed17e898d03d8c1350029",
  "source": "pragma solidity ^0.5.0;\r\n\r\ncontract SearchDPL {\r\n    \r\n  uint public dplCount = 0;\r\n \r\n  \r\n  mapping(uint => DPL) internal dpls;\r\n  \r\n  DPL[] public nameList;\r\n  \r\n  struct DPL {\r\n    uint id;  \r\n    string name;\r\n    string country;\r\n    string addr;\r\n    string street;\r\n    string city;\r\n    bool searched;\r\n  } \r\n\r\n  event DPLCreated(\r\n    uint id,\r\n    string name,\r\n    string country,\r\n    string addr,\r\n    string street,\r\n    string city,\r\n    bool searched\r\n  );\r\n\r\n\r\n  event SearchCompleted(\r\n    uint id,\r\n    string name,\r\n    string country,\r\n    string addr,\r\n    string street,\r\n    string city,\r\n    bool searched\r\n  );\r\n\r\n    constructor() public {\r\n        \r\n       createDPL( \"Sonvir\",\"India\",\"A2,LiquidHub,DLF World Tech Park\",\"Line 1\",\"Gurgaon\");\r\n       createDPL( \"Nikhil\",\"Poland\",\"A4,Capgemini,DLF World Tech Park\",\"Line 2\",\"Delhi\");\r\n    }\r\n\r\n  function createDPL(string memory _name, string memory _country, string memory _addr, string memory _street, string memory _city) public {\r\n    \r\n   \r\n    \r\n    // Require Name\r\n\r\n    require(bytes(_name).length > 0);\r\n\r\n    //Require Country Name\r\n\r\n    require(bytes(_country).length > 0) ; \r\n\r\n    //Require Address\r\n\r\n    require(bytes(_addr).length > 0) ; \r\n\r\n    //Require Street\r\n\r\n    require(bytes(_city).length >= 0) ;\r\n\r\n    //Require City Name\r\n\r\n    require(bytes(_city).length > 0) ;  \r\n\r\n    // Increment the product count\r\n\r\n   dplCount  ++;\r\n\r\n    // Create the DPL\r\n\r\n    dpls[dplCount] = DPL(dplCount, _name, _country, _addr, _street, _city, false);\r\n    \r\n\r\n    // Trigger an event\r\n\r\n    emit DPLCreated(dplCount, _name, _country, _addr, _street, _city, false);\r\n\r\n  }\r\n\r\n  function searchDpl(string memory _name) public {\r\n\r\n        //Fetch the DPL\r\n    \r\n         //DPL storage _dpl = dpls[_name] ; \r\n         for(uint i=1; i <= dplCount; i++) {\r\n             \r\n             if(keccak256(abi.encodePacked((dpls[i].name))) == keccak256(abi.encodePacked((_name))) ) {\r\n                 \r\n                emit SearchCompleted(dplCount, dpls[i].name, dpls[i].country, dpls[i].addr, dpls[i].street, dpls[i].city, true); \r\n             }\r\n             \r\n         }\r\n  }\r\n  \r\n}\r\n",
  "sourcePath": "C:/Users/sonvsing/VerifyDPL/src/contracts/SearchDPL.sol",
  "compiler": {
    "name": "solc",
    "version": "0.5.8+commit.23d335f2.Emscripten.clang"
  },
  "schemaVersion": "3.0.16",
  "updatedAt": "2019-10-03T06:48:16.373Z",
  "devdoc": {
    "methods": {}
  },
  "userdoc": {
    "methods": {}
  }
}