{
  "contractName": "SearchDPL",
  "abi": [
    {
      "constant": true,
      "inputs": [],
      "name": "dplCount",
      "outputs": [
        {
          "name": "",
          "type": "uint256"
        }
      ],
      "payable": false,
      "stateMutability": "view",
      "type": "function"
    },
    {
      "constant": true,
      "inputs": [
        {
          "name": "",
          "type": "uint256"
        }
      ],
      "name": "dpls",
      "outputs": [
        {
          "name": "id",
          "type": "uint256"
        },
        {
          "name": "name",
          "type": "string"
        },
        {
          "name": "country",
          "type": "string"
        },
        {
          "name": "addr",
          "type": "string"
        },
        {
          "name": "street",
          "type": "string"
        },
        {
          "name": "city",
          "type": "string"
        },
        {
          "name": "searched",
          "type": "bool"
        }
      ],
      "payable": false,
      "stateMutability": "view",
      "type": "function"
    },
    {
      "constant": true,
      "inputs": [
        {
          "name": "",
          "type": "uint256"
        }
      ],
      "name": "nameList",
      "outputs": [
        {
          "name": "id",
          "type": "uint256"
        },
        {
          "name": "name",
          "type": "string"
        },
        {
          "name": "country",
          "type": "string"
        },
        {
          "name": "addr",
          "type": "string"
        },
        {
          "name": "street",
          "type": "string"
        },
        {
          "name": "city",
          "type": "string"
        },
        {
          "name": "searched",
          "type": "bool"
        }
      ],
      "payable": false,
      "stateMutability": "view",
      "type": "function"
    },
    {
      "inputs": [],
      "payable": false,
      "stateMutability": "nonpayable",
      "type": "constructor"
    },
    {
      "anonymous": false,
      "inputs": [
        {
          "indexed": false,
          "name": "id",
          "type": "uint256"
        },
        {
          "indexed": false,
          "name": "name",
          "type": "string"
        },
        {
          "indexed": false,
          "name": "country",
          "type": "string"
        },
        {
          "indexed": false,
          "name": "addr",
          "type": "string"
        },
        {
          "indexed": false,
          "name": "street",
          "type": "string"
        },
        {
          "indexed": false,
          "name": "city",
          "type": "string"
        },
        {
          "indexed": false,
          "name": "searched",
          "type": "bool"
        }
      ],
      "name": "DPLCreated",
      "type": "event"
    },
    {
      "anonymous": false,
      "inputs": [
        {
          "indexed": false,
          "name": "id",
          "type": "uint256"
        },
        {
          "indexed": false,
          "name": "name",
          "type": "string"
        },
        {
          "indexed": false,
          "name": "country",
          "type": "string"
        },
        {
          "indexed": false,
          "name": "addr",
          "type": "string"
        },
        {
          "indexed": false,
          "name": "street",
          "type": "string"
        },
        {
          "indexed": false,
          "name": "city",
          "type": "string"
        },
        {
          "indexed": false,
          "name": "searched",
          "type": "bool"
        }
      ],
      "name": "SearchCompleted",
      "type": "event"
    },
    {
      "constant": false,
      "inputs": [
        {
          "name": "_name",
          "type": "string"
        },
        {
          "name": "_country",
          "type": "string"
        },
        {
          "name": "_addr",
          "type": "string"
        },
        {
          "name": "_street",
          "type": "string"
        },
        {
          "name": "_city",
          "type": "string"
        }
      ],
      "name": "createDPL",
      "outputs": [],
      "payable": false,
      "stateMutability": "nonpayable",
      "type": "function"
    },
    {
      "constant": false,
      "inputs": [
        {
          "name": "_name",
          "type": "string"
        }
      ],
      "name": "searchDpl",
      "outputs": [],
      "payable": false,
      "stateMutability": "nonpayable",
      "type": "function"
    }
  ],
  "bytecode": "0x6080604052600080553480156200001557600080fd5b50620001346040518060400160405280600681526020017f536f6e76697200000000000000000000000000000000000000000000000000008152506040518060400160405280600581526020017f496e6469610000000000000000000000000000000000000000000000000000008152506040518060400160405280602081526020017f41322c4c69717569644875622c444c4620576f726c642054656368205061726b8152506040518060400160405280600681526020017f4c696e65203100000000000000000000000000000000000000000000000000008152506040518060400160405280600781526020017f47757267616f6e000000000000000000000000000000000000000000000000008152506200037660201b60201c565b620002526040518060400160405280600681526020017f4e696b68696c00000000000000000000000000000000000000000000000000008152506040518060400160405280600681526020017f506f6c616e6400000000000000000000000000000000000000000000000000008152506040518060400160405280602081526020017f41342c43617067656d696e692c444c4620576f726c642054656368205061726b8152506040518060400160405280600681526020017f4c696e65203200000000000000000000000000000000000000000000000000008152506040518060400160405280600581526020017f44656c68690000000000000000000000000000000000000000000000000000008152506200037660201b60201c565b620003706040518060400160405280600681526020017f4e696b68696c00000000000000000000000000000000000000000000000000008152506040518060400160405280600681526020017f506f6c616e6400000000000000000000000000000000000000000000000000008152506040518060400160405280602081526020017f41342c43617067656d696e692c444c4620576f726c642054656368205061726b8152506040518060400160405280600681526020017f4c696e65203200000000000000000000000000000000000000000000000000008152506040518060400160405280600581526020017f44656c68690000000000000000000000000000000000000000000000000000008152506200037660201b60201c565b62000813565b60008551116200038557600080fd5b60008451116200039457600080fd5b6000835111620003a357600080fd5b600081511015620003b357600080fd5b6000815111620003c257600080fd5b60008081548092919060010191905055506040518060e0016040528060005481526020018681526020018581526020018481526020018381526020018281526020016000151581525060016000805481526020019081526020016000206000820151816000015560208201518160010190805190602001906200044792919062000764565b5060408201518160020190805190602001906200046692919062000764565b5060608201518160030190805190602001906200048592919062000764565b506080820151816004019080519060200190620004a492919062000764565b5060a0820151816005019080519060200190620004c392919062000764565b5060c08201518160060160006101000a81548160ff0219169083151502179055509050507fd108bbfb450f4578937fd3e512805b53c3cc7c6099dfbdfc35eb52517d158742600054868686868660006040518088815260200180602001806020018060200180602001806020018715151515815260200186810386528c818151815260200191508051906020019080838360005b838110156200057457808201518184015260208101905062000557565b50505050905090810190601f168015620005a25780820380516001836020036101000a031916815260200191505b5086810385528b818151815260200191508051906020019080838360005b83811015620005dd578082015181840152602081019050620005c0565b50505050905090810190601f1680156200060b5780820380516001836020036101000a031916815260200191505b5086810384528a818151815260200191508051906020019080838360005b838110156200064657808201518184015260208101905062000629565b50505050905090810190601f168015620006745780820380516001836020036101000a031916815260200191505b50868103835289818151815260200191508051906020019080838360005b83811015620006af57808201518184015260208101905062000692565b50505050905090810190601f168015620006dd5780820380516001836020036101000a031916815260200191505b50868103825288818151815260200191508051906020019080838360005b8381101562000718578082015181840152602081019050620006fb565b50505050905090810190601f168015620007465780820380516001836020036101000a031916815260200191505b509c5050505050505050505050505060405180910390a15050505050565b828054600181600116156101000203166002900490600052602060002090601f016020900481019282601f10620007a757805160ff1916838001178555620007d8565b82800160010185558215620007d8579182015b82811115620007d7578251825591602001919060010190620007ba565b5b509050620007e79190620007eb565b5090565b6200081091905b808211156200080c576000816000905550600101620007f2565b5090565b90565b6118ea80620008236000396000f3fe608060405234801561001057600080fd5b50600436106100575760003560e01c80631c1477921461005c5780632dc898e3146101175780637a39a66414610135578063f469cb6a1461039e578063f5f7368a14610607575b600080fd5b6101156004803603602081101561007257600080fd5b810190808035906020019064010000000081111561008f57600080fd5b8201836020820111156100a157600080fd5b803590602001918460018302840111640100000000831117156100c357600080fd5b91908080601f016020809104026020016040519081016040528093929190818152602001838380828437600081840152601f19601f82011690508083019250505050505050919291929050505061091e565b005b61011f610da8565b6040518082815260200191505060405180910390f35b6101616004803603602081101561014b57600080fd5b8101908080359060200190929190505050610dae565b6040518088815260200180602001806020018060200180602001806020018715151515815260200186810386528c818151815260200191508051906020019080838360005b838110156101c15780820151818401526020810190506101a6565b50505050905090810190601f1680156101ee5780820380516001836020036101000a031916815260200191505b5086810385528b818151815260200191508051906020019080838360005b8381101561022757808201518184015260208101905061020c565b50505050905090810190601f1680156102545780820380516001836020036101000a031916815260200191505b5086810384528a818151815260200191508051906020019080838360005b8381101561028d578082015181840152602081019050610272565b50505050905090810190601f1680156102ba5780820380516001836020036101000a031916815260200191505b50868103835289818151815260200191508051906020019080838360005b838110156102f35780820151818401526020810190506102d8565b50505050905090810190601f1680156103205780820380516001836020036101000a031916815260200191505b50868103825288818151815260200191508051906020019080838360005b8381101561035957808201518184015260208101905061033e565b50505050905090810190601f1680156103865780820380516001836020036101000a031916815260200191505b509c5050505050505050505050505060405180910390f35b6103ca600480360360208110156103b457600080fd5b81019080803590602001909291905050506110f5565b6040518088815260200180602001806020018060200180602001806020018715151515815260200186810386528c818151815260200191508051906020019080838360005b8381101561042a57808201518184015260208101905061040f565b50505050905090810190601f1680156104575780820380516001836020036101000a031916815260200191505b5086810385528b818151815260200191508051906020019080838360005b83811015610490578082015181840152602081019050610475565b50505050905090810190601f1680156104bd5780820380516001836020036101000a031916815260200191505b5086810384528a818151815260200191508051906020019080838360005b838110156104f65780820151818401526020810190506104db565b50505050905090810190601f1680156105235780820380516001836020036101000a031916815260200191505b50868103835289818151815260200191508051906020019080838360005b8381101561055c578082015181840152602081019050610541565b50505050905090810190601f1680156105895780820380516001836020036101000a031916815260200191505b50868103825288818151815260200191508051906020019080838360005b838110156105c25780820151818401526020810190506105a7565b50505050905090810190601f1680156105ef5780820380516001836020036101000a031916815260200191505b509c5050505050505050505050505060405180910390f35b61091c600480360360a081101561061d57600080fd5b810190808035906020019064010000000081111561063a57600080fd5b82018360208201111561064c57600080fd5b8035906020019184600183028401116401000000008311171561066e57600080fd5b91908080601f016020809104026020016040519081016040528093929190818152602001838380828437600081840152601f19601f820116905080830192505050505050509192919290803590602001906401000000008111156106d157600080fd5b8201836020820111156106e357600080fd5b8035906020019184600183028401116401000000008311171561070557600080fd5b91908080601f016020809104026020016040519081016040528093929190818152602001838380828437600081840152601f19601f8201169050808301925050505050505091929192908035906020019064010000000081111561076857600080fd5b82018360208201111561077a57600080fd5b8035906020019184600183028401116401000000008311171561079c57600080fd5b91908080601f016020809104026020016040519081016040528093929190818152602001838380828437600081840152601f19601f820116905080830192505050505050509192919290803590602001906401000000008111156107ff57600080fd5b82018360208201111561081157600080fd5b8035906020019184600183028401116401000000008311171561083357600080fd5b91908080601f016020809104026020016040519081016040528093929190818152602001838380828437600081840152601f19601f8201169050808301925050505050505091929192908035906020019064010000000081111561089657600080fd5b8201836020820111156108a857600080fd5b803590602001918460018302840111640100000000831117156108ca57600080fd5b91908080601f016020809104026020016040519081016040528093929190818152602001838380828437600081840152601f19601f820116905080830192505050505050509192919290505050611449565b005b6000600190505b6000548111610da457816040516020018082805190602001908083835b602083106109655780518252602082019150602081019050602083039250610942565b6001836020036101000a03801982511681845116808217855250505050505090500191505060405160208183030381529060405280519060200120600160008381526020019081526020016000206001016040516020018082805460018160011615610100020316600290048015610a145780601f106109f2576101008083540402835291820191610a14565b820191906000526020600020905b815481529060010190602001808311610a00575b5050915050604051602081830303815290604052805190602001201415610d97577fa50bd99106672da18216aef7e295c2ebcfffb88edf125d58befa6d193309f919600054600160008481526020019081526020016000206001016001600085815260200190815260200160002060020160016000868152602001908152602001600020600301600160008781526020019081526020016000206004016001600088815260200190815260200160002060050160016040518088815260200180602001806020018060200180602001806020018715151515815260200186810386528c818154600181600116156101000203166002900481526020019150805460018160011615610100020316600290048015610b725780601f10610b4757610100808354040283529160200191610b72565b820191906000526020600020905b815481529060010190602001808311610b5557829003601f168201915b505086810385528b818154600181600116156101000203166002900481526020019150805460018160011615610100020316600290048015610bf55780601f10610bca57610100808354040283529160200191610bf5565b820191906000526020600020905b815481529060010190602001808311610bd857829003601f168201915b505086810384528a818154600181600116156101000203166002900481526020019150805460018160011615610100020316600290048015610c785780601f10610c4d57610100808354040283529160200191610c78565b820191906000526020600020905b815481529060010190602001808311610c5b57829003601f168201915b5050868103835289818154600181600116156101000203166002900481526020019150805460018160011615610100020316600290048015610cfb5780601f10610cd057610100808354040283529160200191610cfb565b820191906000526020600020905b815481529060010190602001808311610cde57829003601f168201915b5050868103825288818154600181600116156101000203166002900481526020019150805460018160011615610100020316600290048015610d7e5780601f10610d5357610100808354040283529160200191610d7e565b820191906000526020600020905b815481529060010190602001808311610d6157829003601f168201915b50509c5050505050505050505050505060405180910390a15b8080600101915050610925565b5050565b60005481565b6001602052806000526040600020600091509050806000015490806001018054600181600116156101000203166002900480601f016020809104026020016040519081016040528092919081815260200182805460018160011615610100020316600290048015610e605780601f10610e3557610100808354040283529160200191610e60565b820191906000526020600020905b815481529060010190602001808311610e4357829003601f168201915b505050505090806002018054600181600116156101000203166002900480601f016020809104026020016040519081016040528092919081815260200182805460018160011615610100020316600290048015610efe5780601f10610ed357610100808354040283529160200191610efe565b820191906000526020600020905b815481529060010190602001808311610ee157829003601f168201915b505050505090806003018054600181600116156101000203166002900480601f016020809104026020016040519081016040528092919081815260200182805460018160011615610100020316600290048015610f9c5780601f10610f7157610100808354040283529160200191610f9c565b820191906000526020600020905b815481529060010190602001808311610f7f57829003601f168201915b505050505090806004018054600181600116156101000203166002900480601f01602080910402602001604051908101604052809291908181526020018280546001816001161561010002031660029004801561103a5780601f1061100f5761010080835404028352916020019161103a565b820191906000526020600020905b81548152906001019060200180831161101d57829003601f168201915b505050505090806005018054600181600116156101000203166002900480601f0160208091040260200160405190810160405280929190818152602001828054600181600116156101000203166002900480156110d85780601f106110ad576101008083540402835291602001916110d8565b820191906000526020600020905b8154815290600101906020018083116110bb57829003601f168201915b5050505050908060060160009054906101000a900460ff16905087565b6002818154811061110257fe5b9060005260206000209060070201600091509050806000015490806001018054600181600116156101000203166002900480601f0160208091040260200160405190810160405280929190818152602001828054600181600116156101000203166002900480156111b45780601f10611189576101008083540402835291602001916111b4565b820191906000526020600020905b81548152906001019060200180831161119757829003601f168201915b505050505090806002018054600181600116156101000203166002900480601f0160208091040260200160405190810160405280929190818152602001828054600181600116156101000203166002900480156112525780601f1061122757610100808354040283529160200191611252565b820191906000526020600020905b81548152906001019060200180831161123557829003601f168201915b505050505090806003018054600181600116156101000203166002900480601f0160208091040260200160405190810160405280929190818152602001828054600181600116156101000203166002900480156112f05780601f106112c5576101008083540402835291602001916112f0565b820191906000526020600020905b8154815290600101906020018083116112d357829003601f168201915b505050505090806004018054600181600116156101000203166002900480601f01602080910402602001604051908101604052809291908181526020018280546001816001161561010002031660029004801561138e5780601f106113635761010080835404028352916020019161138e565b820191906000526020600020905b81548152906001019060200180831161137157829003601f168201915b505050505090806005018054600181600116156101000203166002900480601f01602080910402602001604051908101604052809291908181526020018280546001816001161561010002031660029004801561142c5780601f106114015761010080835404028352916020019161142c565b820191906000526020600020905b81548152906001019060200180831161140f57829003601f168201915b5050505050908060060160009054906101000a900460ff16905087565b600085511161145757600080fd5b600084511161146557600080fd5b600083511161147357600080fd5b60008151101561148257600080fd5b600081511161149057600080fd5b60008081548092919060010191905055506040518060e001604052806000548152602001868152602001858152602001848152602001838152602001828152602001600015158152506001600080548152602001908152602001600020600082015181600001556020820151816001019080519060200190611513929190611819565b506040820151816002019080519060200190611530929190611819565b50606082015181600301908051906020019061154d929190611819565b50608082015181600401908051906020019061156a929190611819565b5060a0820151816005019080519060200190611587929190611819565b5060c08201518160060160006101000a81548160ff0219169083151502179055509050507fd108bbfb450f4578937fd3e512805b53c3cc7c6099dfbdfc35eb52517d158742600054868686868660006040518088815260200180602001806020018060200180602001806020018715151515815260200186810386528c818151815260200191508051906020019080838360005b8381101561163657808201518184015260208101905061161b565b50505050905090810190601f1680156116635780820380516001836020036101000a031916815260200191505b5086810385528b818151815260200191508051906020019080838360005b8381101561169c578082015181840152602081019050611681565b50505050905090810190601f1680156116c95780820380516001836020036101000a031916815260200191505b5086810384528a818151815260200191508051906020019080838360005b838110156117025780820151818401526020810190506116e7565b50505050905090810190601f16801561172f5780820380516001836020036101000a031916815260200191505b50868103835289818151815260200191508051906020019080838360005b8381101561176857808201518184015260208101905061174d565b50505050905090810190601f1680156117955780820380516001836020036101000a031916815260200191505b50868103825288818151815260200191508051906020019080838360005b838110156117ce5780820151818401526020810190506117b3565b50505050905090810190601f1680156117fb5780820380516001836020036101000a031916815260200191505b509c5050505050505050505050505060405180910390a15050505050565b828054600181600116156101000203166002900490600052602060002090601f016020900481019282601f1061185a57805160ff1916838001178555611888565b82800160010185558215611888579182015b8281111561188757825182559160200191906001019061186c565b5b5090506118959190611899565b5090565b6118bb91905b808211156118b757600081600090555060010161189f565b5090565b9056fea165627a7a7230582088dd0381b1b444e514aeb6d492f206989f36793a0fcbb2d9c67ea03ec9406cbd0029",
  "source": "pragma solidity ^0.5.0;\r\n\r\ncontract SearchDPL {\r\n    \r\n  uint public dplCount = 0;\r\n \r\n  \r\n  mapping(uint => DPL) public dpls;\r\n  \r\n  DPL[] public nameList;\r\n  \r\n  struct DPL {\r\n    uint id;  \r\n    string name;\r\n    string country;\r\n    string addr;\r\n    string street;\r\n    string city;\r\n    bool searched;\r\n  } \r\n\r\n  event DPLCreated(\r\n    uint id,\r\n    string name,\r\n    string country,\r\n    string addr,\r\n    string street,\r\n    string city,\r\n    bool searched\r\n  );\r\n\r\n\r\n  event SearchCompleted(\r\n    uint id,\r\n    string name,\r\n    string country,\r\n    string addr,\r\n    string street,\r\n    string city,\r\n    bool searched\r\n  );\r\n\r\n    constructor() public {\r\n        \r\n       createDPL( \"Sonvir\",\"India\",\"A2,LiquidHub,DLF World Tech Park\",\"Line 1\",\"Gurgaon\");\r\n       createDPL( \"Nikhil\",\"Poland\",\"A4,Capgemini,DLF World Tech Park\",\"Line 2\",\"Delhi\");\r\n       createDPL( \"Nikhil\",\"Poland\",\"A4,Capgemini,DLF World Tech Park\",\"Line 2\",\"Delhi\");\r\n    }\r\n\r\n  function createDPL(string memory _name, string memory _country, string memory _addr, string memory _street, string memory _city) public {\r\n    \r\n   \r\n    \r\n    // Require Name\r\n\r\n    require(bytes(_name).length > 0);\r\n\r\n    //Require Country Name\r\n\r\n    require(bytes(_country).length > 0) ; \r\n\r\n    //Require Address\r\n\r\n    require(bytes(_addr).length > 0) ; \r\n\r\n    //Require Street\r\n\r\n    require(bytes(_city).length >= 0) ;\r\n\r\n    //Require City Name\r\n\r\n    require(bytes(_city).length > 0) ;  \r\n\r\n    // Increment the product count\r\n\r\n    dplCount++;\r\n\r\n    // Create the DPL\r\n\r\n    dpls[dplCount] = DPL(dplCount, _name, _country, _addr, _street, _city, false);\r\n    \r\n\r\n    // Trigger an event\r\n\r\n    emit DPLCreated(dplCount, _name, _country, _addr, _street, _city, false);\r\n\r\n  }\r\n\r\n  function searchDpl(string memory _name) public {\r\n\r\n        //Fetch the DPL\r\n    \r\n         //DPL storage _dpl = dpls[_name] ; \r\n         for(uint i=1; i <= dplCount; i++) {\r\n             \r\n             if(keccak256(abi.encodePacked((dpls[i].name))) == keccak256(abi.encodePacked((_name))) ) {\r\n                 \r\n                emit SearchCompleted(dplCount, dpls[i].name, dpls[i].country, dpls[i].addr, dpls[i].street, dpls[i].city, true); \r\n             }\r\n             \r\n         }\r\n  }\r\n  \r\n}\r\n",
  "sourcePath": "C:/Users/sonvsing/VerifyDPL/src/contracts/SearchDPL.sol",
  "compiler": {
    "name": "solc",
    "version": "0.5.8+commit.23d335f2.Emscripten.clang"
  },
  "schemaVersion": "3.0.16",
  "updatedAt": "2019-10-16T17:07:14.184Z",
  "devdoc": {
    "methods": {}
  },
  "userdoc": {
    "methods": {}
  }
}